{
  "_format": "hh-sol-artifact-1",
  "contractName": "Minter",
  "sourceName": "contracts/Minter.sol",
  "abi": [
    {
      "inputs": [],
      "stateMutability": "nonpayable",
      "type": "constructor"
    },
    {
      "anonymous": false,
      "inputs": [
        {
          "indexed": true,
          "internalType": "address",
          "name": "owner",
          "type": "address"
        },
        {
          "indexed": true,
          "internalType": "address",
          "name": "approved",
          "type": "address"
        },
        {
          "indexed": true,
          "internalType": "uint256",
          "name": "tokenId",
          "type": "uint256"
        }
      ],
      "name": "Approval",
      "type": "event"
    },
    {
      "anonymous": false,
      "inputs": [
        {
          "indexed": true,
          "internalType": "address",
          "name": "owner",
          "type": "address"
        },
        {
          "indexed": true,
          "internalType": "address",
          "name": "operator",
          "type": "address"
        },
        {
          "indexed": false,
          "internalType": "bool",
          "name": "approved",
          "type": "bool"
        }
      ],
      "name": "ApprovalForAll",
      "type": "event"
    },
    {
      "anonymous": false,
      "inputs": [
        {
          "indexed": true,
          "internalType": "address",
          "name": "previousOwner",
          "type": "address"
        },
        {
          "indexed": true,
          "internalType": "address",
          "name": "newOwner",
          "type": "address"
        }
      ],
      "name": "OwnershipTransferred",
      "type": "event"
    },
    {
      "anonymous": false,
      "inputs": [
        {
          "indexed": false,
          "internalType": "address",
          "name": "account",
          "type": "address"
        }
      ],
      "name": "Paused",
      "type": "event"
    },
    {
      "anonymous": false,
      "inputs": [
        {
          "indexed": true,
          "internalType": "address",
          "name": "from",
          "type": "address"
        },
        {
          "indexed": true,
          "internalType": "address",
          "name": "to",
          "type": "address"
        },
        {
          "indexed": true,
          "internalType": "uint256",
          "name": "tokenId",
          "type": "uint256"
        }
      ],
      "name": "Transfer",
      "type": "event"
    },
    {
      "anonymous": false,
      "inputs": [
        {
          "indexed": false,
          "internalType": "address",
          "name": "account",
          "type": "address"
        }
      ],
      "name": "Unpaused",
      "type": "event"
    },
    {
      "inputs": [
        {
          "internalType": "address",
          "name": "to",
          "type": "address"
        },
        {
          "internalType": "uint256",
          "name": "tokenId",
          "type": "uint256"
        }
      ],
      "name": "approve",
      "outputs": [],
      "stateMutability": "nonpayable",
      "type": "function"
    },
    {
      "inputs": [
        {
          "internalType": "address",
          "name": "owner",
          "type": "address"
        }
      ],
      "name": "balanceOf",
      "outputs": [
        {
          "internalType": "uint256",
          "name": "",
          "type": "uint256"
        }
      ],
      "stateMutability": "view",
      "type": "function"
    },
    {
      "inputs": [
        {
          "internalType": "uint256",
          "name": "tokenId",
          "type": "uint256"
        },
        {
          "internalType": "string",
          "name": "_name",
          "type": "string"
        }
      ],
      "name": "changeName",
      "outputs": [],
      "stateMutability": "nonpayable",
      "type": "function"
    },
    {
      "inputs": [
        {
          "internalType": "uint256",
          "name": "tokenId",
          "type": "uint256"
        }
      ],
      "name": "getApproved",
      "outputs": [
        {
          "internalType": "address",
          "name": "",
          "type": "address"
        }
      ],
      "stateMutability": "view",
      "type": "function"
    },
    {
      "inputs": [
        {
          "internalType": "address",
          "name": "_address",
          "type": "address"
        }
      ],
      "name": "getTokenURIByAddress",
      "outputs": [
        {
          "internalType": "string",
          "name": "",
          "type": "string"
        }
      ],
      "stateMutability": "view",
      "type": "function"
    },
    {
      "inputs": [
        {
          "internalType": "address",
          "name": "owner",
          "type": "address"
        },
        {
          "internalType": "address",
          "name": "operator",
          "type": "address"
        }
      ],
      "name": "isApprovedForAll",
      "outputs": [
        {
          "internalType": "bool",
          "name": "",
          "type": "bool"
        }
      ],
      "stateMutability": "view",
      "type": "function"
    },
    {
      "inputs": [],
      "name": "name",
      "outputs": [
        {
          "internalType": "string",
          "name": "",
          "type": "string"
        }
      ],
      "stateMutability": "view",
      "type": "function"
    },
    {
      "inputs": [],
      "name": "owner",
      "outputs": [
        {
          "internalType": "address",
          "name": "",
          "type": "address"
        }
      ],
      "stateMutability": "view",
      "type": "function"
    },
    {
      "inputs": [
        {
          "internalType": "uint256",
          "name": "tokenId",
          "type": "uint256"
        }
      ],
      "name": "ownerOf",
      "outputs": [
        {
          "internalType": "address",
          "name": "",
          "type": "address"
        }
      ],
      "stateMutability": "view",
      "type": "function"
    },
    {
      "inputs": [],
      "name": "pause",
      "outputs": [],
      "stateMutability": "nonpayable",
      "type": "function"
    },
    {
      "inputs": [],
      "name": "paused",
      "outputs": [
        {
          "internalType": "bool",
          "name": "",
          "type": "bool"
        }
      ],
      "stateMutability": "view",
      "type": "function"
    },
    {
      "inputs": [],
      "name": "renounceOwnership",
      "outputs": [],
      "stateMutability": "nonpayable",
      "type": "function"
    },
    {
      "inputs": [
        {
          "internalType": "address",
          "name": "_to",
          "type": "address"
        },
        {
          "internalType": "string",
          "name": "_name",
          "type": "string"
        }
      ],
      "name": "safeMint",
      "outputs": [],
      "stateMutability": "nonpayable",
      "type": "function"
    },
    {
      "inputs": [
        {
          "internalType": "address",
          "name": "from",
          "type": "address"
        },
        {
          "internalType": "address",
          "name": "to",
          "type": "address"
        },
        {
          "internalType": "uint256",
          "name": "tokenId",
          "type": "uint256"
        }
      ],
      "name": "safeTransferFrom",
      "outputs": [],
      "stateMutability": "nonpayable",
      "type": "function"
    },
    {
      "inputs": [
        {
          "internalType": "address",
          "name": "from",
          "type": "address"
        },
        {
          "internalType": "address",
          "name": "to",
          "type": "address"
        },
        {
          "internalType": "uint256",
          "name": "tokenId",
          "type": "uint256"
        },
        {
          "internalType": "bytes",
          "name": "data",
          "type": "bytes"
        }
      ],
      "name": "safeTransferFrom",
      "outputs": [],
      "stateMutability": "nonpayable",
      "type": "function"
    },
    {
      "inputs": [
        {
          "internalType": "address",
          "name": "operator",
          "type": "address"
        },
        {
          "internalType": "bool",
          "name": "approved",
          "type": "bool"
        }
      ],
      "name": "setApprovalForAll",
      "outputs": [],
      "stateMutability": "nonpayable",
      "type": "function"
    },
    {
      "inputs": [
        {
          "internalType": "bytes4",
          "name": "interfaceId",
          "type": "bytes4"
        }
      ],
      "name": "supportsInterface",
      "outputs": [
        {
          "internalType": "bool",
          "name": "",
          "type": "bool"
        }
      ],
      "stateMutability": "view",
      "type": "function"
    },
    {
      "inputs": [],
      "name": "symbol",
      "outputs": [
        {
          "internalType": "string",
          "name": "",
          "type": "string"
        }
      ],
      "stateMutability": "view",
      "type": "function"
    },
    {
      "inputs": [
        {
          "internalType": "uint256",
          "name": "_tokenId",
          "type": "uint256"
        }
      ],
      "name": "tokenURI",
      "outputs": [
        {
          "internalType": "string",
          "name": "",
          "type": "string"
        }
      ],
      "stateMutability": "view",
      "type": "function"
    },
    {
      "inputs": [
        {
          "internalType": "address",
          "name": "from",
          "type": "address"
        },
        {
          "internalType": "address",
          "name": "to",
          "type": "address"
        },
        {
          "internalType": "uint256",
          "name": "tokenId",
          "type": "uint256"
        }
      ],
      "name": "transferFrom",
      "outputs": [],
      "stateMutability": "nonpayable",
      "type": "function"
    },
    {
      "inputs": [
        {
          "internalType": "address",
          "name": "newOwner",
          "type": "address"
        }
      ],
      "name": "transferOwnership",
      "outputs": [],
      "stateMutability": "nonpayable",
      "type": "function"
    },
    {
      "inputs": [],
      "name": "unpause",
      "outputs": [],
      "stateMutability": "nonpayable",
      "type": "function"
    }
  ],
  "bytecode": "0x60806040523480156200001157600080fd5b506040518060400160405280600681526020017f4d696e74657200000000000000000000000000000000000000000000000000008152506040518060400160405280600381526020017f4d4e54000000000000000000000000000000000000000000000000000000000081525081600090816200008f91906200042d565b508060019081620000a191906200042d565b5050506000600760006101000a81548160ff021916908315150217905550620000df620000d3620000e560201b60201c565b620000ed60201b60201c565b62000514565b600033905090565b6000600760019054906101000a900473ffffffffffffffffffffffffffffffffffffffff16905081600760016101000a81548173ffffffffffffffffffffffffffffffffffffffff021916908373ffffffffffffffffffffffffffffffffffffffff1602179055508173ffffffffffffffffffffffffffffffffffffffff168173ffffffffffffffffffffffffffffffffffffffff167f8be0079c531659141344cd1fd0a4f28419497f9722a3daafe3b4186f6b6457e060405160405180910390a35050565b600081519050919050565b7f4e487b7100000000000000000000000000000000000000000000000000000000600052604160045260246000fd5b7f4e487b7100000000000000000000000000000000000000000000000000000000600052602260045260246000fd5b600060028204905060018216806200023557607f821691505b6020821081036200024b576200024a620001ed565b5b50919050565b60008190508160005260206000209050919050565b60006020601f8301049050919050565b600082821b905092915050565b600060088302620002b57fffffffffffffffffffffffffffffffffffffffffffffffffffffffffffffffff8262000276565b620002c1868362000276565b95508019841693508086168417925050509392505050565b6000819050919050565b6000819050919050565b60006200030e620003086200030284620002d9565b620002e3565b620002d9565b9050919050565b6000819050919050565b6200032a83620002ed565b62000342620003398262000315565b84845462000283565b825550505050565b600090565b620003596200034a565b620003668184846200031f565b505050565b5b818110156200038e57620003826000826200034f565b6001810190506200036c565b5050565b601f821115620003dd57620003a78162000251565b620003b28462000266565b81016020851015620003c2578190505b620003da620003d18562000266565b8301826200036b565b50505b505050565b600082821c905092915050565b60006200040260001984600802620003e2565b1980831691505092915050565b60006200041d8383620003ef565b9150826002028217905092915050565b6200043882620001b3565b67ffffffffffffffff811115620004545762000453620001be565b5b6200046082546200021c565b6200046d82828562000392565b600060209050601f831160018114620004a5576000841562000490578287015190505b6200049c85826200040f565b8655506200050c565b601f198416620004b58662000251565b60005b82811015620004df57848901518255600182019150602085019450602081019050620004b8565b86831015620004ff5784890151620004fb601f891682620003ef565b8355505b6001600288020188555050505b505050505050565b61562580620005246000396000f3fe608060405234801561001057600080fd5b50600436106101425760003560e01c8063715018a6116100b8578063b88d4fde1161007c578063b88d4fde1461033d578063c39cbef114610359578063c87b56dd14610375578063d204c45e146103a5578063e985e9c5146103c1578063f2fde38b146103f157610142565b8063715018a6146102d15780638456cb59146102db5780638da5cb5b146102e557806395d89b4114610303578063a22cb4651461032157610142565b806323b872dd1161010a57806323b872dd146102115780633f4ba83a1461022d57806342842e0e146102375780635c975abb146102535780636352211e1461027157806370a08231146102a157610142565b806301cbf53d1461014757806301ffc9a71461017757806306fdde03146101a7578063081812fc146101c5578063095ea7b3146101f5575b600080fd5b610161600480360381019061015c9190612704565b61040d565b60405161016e91906127ca565b60405180910390f35b610191600480360381019061018c9190612844565b610550565b60405161019e919061288c565b60405180910390f35b6101af610632565b6040516101bc91906127ca565b60405180910390f35b6101df60048036038101906101da91906128dd565b6106c4565b6040516101ec9190612919565b60405180910390f35b61020f600480360381019061020a9190612934565b61070a565b005b61022b60048036038101906102269190612974565b610821565b005b610235610881565b005b610251600480360381019061024c9190612974565b610893565b005b61025b6108b3565b604051610268919061288c565b60405180910390f35b61028b600480360381019061028691906128dd565b6108ca565b6040516102989190612919565b60405180910390f35b6102bb60048036038101906102b69190612704565b61097b565b6040516102c891906129d6565b60405180910390f35b6102d9610a32565b005b6102e3610a46565b005b6102ed610a58565b6040516102fa9190612919565b60405180910390f35b61030b610a82565b60405161031891906127ca565b60405180910390f35b61033b60048036038101906103369190612a1d565b610b14565b005b61035760048036038101906103529190612b92565b610b2a565b005b610373600480360381019061036e9190612cb6565b610b8c565b005b61038f600480360381019061038a91906128dd565b610c8d565b60405161039c91906127ca565b60405180910390f35b6103bf60048036038101906103ba9190612d12565b610df7565b005b6103db60048036038101906103d69190612d6e565b610f1e565b6040516103e8919061288c565b60405180910390f35b61040b60048036038101906104069190612704565b610fb2565b005b60606008600960008473ffffffffffffffffffffffffffffffffffffffff1673ffffffffffffffffffffffffffffffffffffffff168152602001908152602001600020548154811061046257610461612dae565b5b906000526020600020906002020160000160009054906101000a900473ffffffffffffffffffffffffffffffffffffffff1673ffffffffffffffffffffffffffffffffffffffff168273ffffffffffffffffffffffffffffffffffffffff1614610501576040517f08c379a00000000000000000000000000000000000000000000000000000000081526004016104f890612e4f565b60405180910390fd5b610549600960008473ffffffffffffffffffffffffffffffffffffffff1673ffffffffffffffffffffffffffffffffffffffff16815260200190815260200160002054610c8d565b9050919050565b60007f80ac58cd000000000000000000000000000000000000000000000000000000007bffffffffffffffffffffffffffffffffffffffffffffffffffffffff1916827bffffffffffffffffffffffffffffffffffffffffffffffffffffffff1916148061061b57507f5b5e139f000000000000000000000000000000000000000000000000000000007bffffffffffffffffffffffffffffffffffffffffffffffffffffffff1916827bffffffffffffffffffffffffffffffffffffffffffffffffffffffff1916145b8061062b575061062a82611035565b5b9050919050565b60606000805461064190612e9e565b80601f016020809104026020016040519081016040528092919081815260200182805461066d90612e9e565b80156106ba5780601f1061068f576101008083540402835291602001916106ba565b820191906000526020600020905b81548152906001019060200180831161069d57829003601f168201915b5050505050905090565b60006106cf8261109f565b6004600083815260200190815260200160002060009054906101000a900473ffffffffffffffffffffffffffffffffffffffff169050919050565b6000610715826108ca565b90508073ffffffffffffffffffffffffffffffffffffffff168373ffffffffffffffffffffffffffffffffffffffff1603610785576040517f08c379a000000000000000000000000000000000000000000000000000000000815260040161077c90612f41565b60405180910390fd5b8073ffffffffffffffffffffffffffffffffffffffff166107a46110ea565b73ffffffffffffffffffffffffffffffffffffffff1614806107d357506107d2816107cd6110ea565b610f1e565b5b610812576040517f08c379a000000000000000000000000000000000000000000000000000000000815260040161080990612fd3565b60405180910390fd5b61081c83836110f2565b505050565b61083261082c6110ea565b826111ab565b610871576040517f08c379a000000000000000000000000000000000000000000000000000000000815260040161086890613065565b60405180910390fd5b61087c838383611240565b505050565b6108896114a6565b610891611524565b565b6108ae83838360405180602001604052806000815250610b2a565b505050565b6000600760009054906101000a900460ff16905090565b6000806002600084815260200190815260200160002060009054906101000a900473ffffffffffffffffffffffffffffffffffffffff169050600073ffffffffffffffffffffffffffffffffffffffff168173ffffffffffffffffffffffffffffffffffffffff1603610972576040517f08c379a0000000000000000000000000000000000000000000000000000000008152600401610969906130d1565b60405180910390fd5b80915050919050565b60008073ffffffffffffffffffffffffffffffffffffffff168273ffffffffffffffffffffffffffffffffffffffff16036109eb576040517f08c379a00000000000000000000000000000000000000000000000000000000081526004016109e290613163565b60405180910390fd5b600360008373ffffffffffffffffffffffffffffffffffffffff1673ffffffffffffffffffffffffffffffffffffffff168152602001908152602001600020549050919050565b610a3a6114a6565b610a446000611587565b565b610a4e6114a6565b610a5661164d565b565b6000600760019054906101000a900473ffffffffffffffffffffffffffffffffffffffff16905090565b606060018054610a9190612e9e565b80601f0160208091040260200160405190810160405280929190818152602001828054610abd90612e9e565b8015610b0a5780601f10610adf57610100808354040283529160200191610b0a565b820191906000526020600020905b815481529060010190602001808311610aed57829003601f168201915b5050505050905090565b610b26610b1f6110ea565b83836116b0565b5050565b610b3b610b356110ea565b836111ab565b610b7a576040517f08c379a0000000000000000000000000000000000000000000000000000000008152600401610b7190613065565b60405180910390fd5b610b868484848461181c565b50505050565b8180600960003373ffffffffffffffffffffffffffffffffffffffff1673ffffffffffffffffffffffffffffffffffffffff1681526020019081526020016000205414610c0e576040517f08c379a0000000000000000000000000000000000000000000000000000000008152600401610c05906131f5565b60405180910390fd5b6008805490508310610c55576040517f08c379a0000000000000000000000000000000000000000000000000000000008152600401610c4c90613261565b60405180910390fd5b8160088481548110610c6a57610c69612dae565b5b90600052602060002090600202016001019081610c87919061342d565b50505050565b60606008805490508210610cd6576040517f08c379a0000000000000000000000000000000000000000000000000000000008152600401610ccd9061354b565b60405180910390fd5b6000610ddd60088481548110610cef57610cee612dae565b5b906000526020600020906002020160000160009054906101000a900473ffffffffffffffffffffffffffffffffffffffff1660088581548110610d3557610d34612dae565b5b90600052602060002090600202016001018054610d5190612e9e565b80601f0160208091040260200160405190810160405280929190818152602001828054610d7d90612e9e565b8015610dca5780601f10610d9f57610100808354040283529160200191610dca565b820191906000526020600020905b815481529060010190602001808311610dad57829003601f168201915b5050505050610dd886611878565b6119d8565b90506000610deb8285611a60565b90508092505050919050565b610dff611b20565b60006008805490501480610ec357508173ffffffffffffffffffffffffffffffffffffffff166008600960008573ffffffffffffffffffffffffffffffffffffffff1673ffffffffffffffffffffffffffffffffffffffff1681526020019081526020016000205481548110610e7857610e77612dae565b5b906000526020600020906002020160000160009054906101000a900473ffffffffffffffffffffffffffffffffffffffff1673ffffffffffffffffffffffffffffffffffffffff1614155b610f02576040517f08c379a0000000000000000000000000000000000000000000000000000000008152600401610ef9906135dd565b60405180910390fd5b6000610f0d82611b6a565b9050610f198382611c84565b505050565b6000600560008473ffffffffffffffffffffffffffffffffffffffff1673ffffffffffffffffffffffffffffffffffffffff16815260200190815260200160002060008373ffffffffffffffffffffffffffffffffffffffff1673ffffffffffffffffffffffffffffffffffffffff16815260200190815260200160002060009054906101000a900460ff16905092915050565b610fba6114a6565b600073ffffffffffffffffffffffffffffffffffffffff168173ffffffffffffffffffffffffffffffffffffffff1603611029576040517f08c379a00000000000000000000000000000000000000000000000000000000081526004016110209061366f565b60405180910390fd5b61103281611587565b50565b60007f01ffc9a7000000000000000000000000000000000000000000000000000000007bffffffffffffffffffffffffffffffffffffffffffffffffffffffff1916827bffffffffffffffffffffffffffffffffffffffffffffffffffffffff1916149050919050565b6110a881611ca2565b6110e7576040517f08c379a00000000000000000000000000000000000000000000000000000000081526004016110de906130d1565b60405180910390fd5b50565b600033905090565b816004600083815260200190815260200160002060006101000a81548173ffffffffffffffffffffffffffffffffffffffff021916908373ffffffffffffffffffffffffffffffffffffffff160217905550808273ffffffffffffffffffffffffffffffffffffffff16611165836108ca565b73ffffffffffffffffffffffffffffffffffffffff167f8c5be1e5ebec7d5bd14f71427d1e84f3dd0314c0f7b2291e5b200ac8c7c3b92560405160405180910390a45050565b6000806111b7836108ca565b90508073ffffffffffffffffffffffffffffffffffffffff168473ffffffffffffffffffffffffffffffffffffffff1614806111f957506111f88185610f1e565b5b8061123757508373ffffffffffffffffffffffffffffffffffffffff1661121f846106c4565b73ffffffffffffffffffffffffffffffffffffffff16145b91505092915050565b8273ffffffffffffffffffffffffffffffffffffffff16611260826108ca565b73ffffffffffffffffffffffffffffffffffffffff16146112b6576040517f08c379a00000000000000000000000000000000000000000000000000000000081526004016112ad90613701565b60405180910390fd5b600073ffffffffffffffffffffffffffffffffffffffff168273ffffffffffffffffffffffffffffffffffffffff1603611325576040517f08c379a000000000000000000000000000000000000000000000000000000000815260040161131c90613793565b60405180910390fd5b611330838383611d0e565b61133b6000826110f2565b6001600360008573ffffffffffffffffffffffffffffffffffffffff1673ffffffffffffffffffffffffffffffffffffffff168152602001908152602001600020600082825461138b91906137e2565b925050819055506001600360008473ffffffffffffffffffffffffffffffffffffffff1673ffffffffffffffffffffffffffffffffffffffff16815260200190815260200160002060008282546113e29190613816565b92505081905550816002600083815260200190815260200160002060006101000a81548173ffffffffffffffffffffffffffffffffffffffff021916908373ffffffffffffffffffffffffffffffffffffffff160217905550808273ffffffffffffffffffffffffffffffffffffffff168473ffffffffffffffffffffffffffffffffffffffff167fddf252ad1be2c89b69c2b068fc378daa952ba7f163c4a11628f55a4df523b3ef60405160405180910390a46114a1838383611e8e565b505050565b6114ae6110ea565b73ffffffffffffffffffffffffffffffffffffffff166114cc610a58565b73ffffffffffffffffffffffffffffffffffffffff1614611522576040517f08c379a0000000000000000000000000000000000000000000000000000000008152600401611519906138b8565b60405180910390fd5b565b61152c611e93565b6000600760006101000a81548160ff0219169083151502179055507f5db9ee0a495bf2e6ff9c91a7834c1ba4fdd244a5e8aa4e537bd38aeae4b073aa6115706110ea565b60405161157d9190612919565b60405180910390a1565b6000600760019054906101000a900473ffffffffffffffffffffffffffffffffffffffff16905081600760016101000a81548173ffffffffffffffffffffffffffffffffffffffff021916908373ffffffffffffffffffffffffffffffffffffffff1602179055508173ffffffffffffffffffffffffffffffffffffffff168173ffffffffffffffffffffffffffffffffffffffff167f8be0079c531659141344cd1fd0a4f28419497f9722a3daafe3b4186f6b6457e060405160405180910390a35050565b611655611b20565b6001600760006101000a81548160ff0219169083151502179055507f62e78cea01bee320cd4e420270b5ea74000d11b0c9f74754ebdbfc544b05a2586116996110ea565b6040516116a69190612919565b60405180910390a1565b8173ffffffffffffffffffffffffffffffffffffffff168373ffffffffffffffffffffffffffffffffffffffff160361171e576040517f08c379a000000000000000000000000000000000000000000000000000000000815260040161171590613924565b60405180910390fd5b80600560008573ffffffffffffffffffffffffffffffffffffffff1673ffffffffffffffffffffffffffffffffffffffff16815260200190815260200160002060008473ffffffffffffffffffffffffffffffffffffffff1673ffffffffffffffffffffffffffffffffffffffff16815260200190815260200160002060006101000a81548160ff0219169083151502179055508173ffffffffffffffffffffffffffffffffffffffff168373ffffffffffffffffffffffffffffffffffffffff167f17307eab39ab6107e8899845ad3d59bd9653f200f220920489ca2b5937696c318360405161180f919061288c565b60405180910390a3505050565b611827848484611240565b61183384848484611edc565b611872576040517f08c379a0000000000000000000000000000000000000000000000000000000008152600401611869906139b6565b60405180910390fd5b50505050565b6060600082036118bf576040518060400160405280600181526020017f300000000000000000000000000000000000000000000000000000000000000081525090506119d3565b600082905060005b600082146118f15780806118da906139d6565b915050600a826118ea9190613a4d565b91506118c7565b60008167ffffffffffffffff81111561190d5761190c612a67565b5b6040519080825280601f01601f19166020018201604052801561193f5781602001600182028036833780820191505090505b5090505b600085146119cc5760018261195891906137e2565b9150600a856119679190613a7e565b60306119739190613816565b60f81b81838151811061198957611988612dae565b5b60200101907effffffffffffffffffffffffffffffffffffffffffffffffffffffffffffff1916908160001a905350600a856119c59190613a4d565b9450611943565b8093505050505b919050565b606060006119fd8573ffffffffffffffffffffffffffffffffffffffff166014612063565b90506000818283848888604051602001611a1c96959493929190614f4a565b6040516020818303038152906040529050611a368161229f565b604051602001611a46919061503b565b604051602081830303815290604052925050509392505050565b606060006040518060400160405280601d81526020017f646174613a6170706c69636174696f6e2f6a736f6e3b6261736536342c0000008152509050600060088481548110611ab257611ab1612dae565b5b906000526020600020906002020160010185604051602001611ad59291906151c4565b60405160208183030381529060405290506000611af18261229f565b90508281604051602001611b06929190615209565b604051602081830303815290604052935050505092915050565b611b286108b3565b15611b68576040517f08c379a0000000000000000000000000000000000000000000000000000000008152600401611b5f90615279565b60405180910390fd5b565b6000600860405180604001604052803373ffffffffffffffffffffffffffffffffffffffff16815260200184815250908060018154018082558091505060019003906000526020600020906002020160009091909190915060008201518160000160006101000a81548173ffffffffffffffffffffffffffffffffffffffff021916908373ffffffffffffffffffffffffffffffffffffffff1602179055506020820151816001019081611c1e919061342d565b50505060006001600880549050611c3591906137e2565b905080600960003373ffffffffffffffffffffffffffffffffffffffff1673ffffffffffffffffffffffffffffffffffffffff1681526020019081526020016000208190555080915050919050565b611c9e828260405180602001604052806000815250612436565b5050565b60008073ffffffffffffffffffffffffffffffffffffffff166002600084815260200190815260200160002060009054906101000a900473ffffffffffffffffffffffffffffffffffffffff1673ffffffffffffffffffffffffffffffffffffffff1614159050919050565b8080600960003373ffffffffffffffffffffffffffffffffffffffff1673ffffffffffffffffffffffffffffffffffffffff1681526020019081526020016000205414611d90576040517f08c379a0000000000000000000000000000000000000000000000000000000008152600401611d87906131f5565b60405180910390fd5b8260088381548110611da557611da4612dae565b5b906000526020600020906002020160000160006101000a81548173ffffffffffffffffffffffffffffffffffffffff021916908373ffffffffffffffffffffffffffffffffffffffff16021790555081600960008573ffffffffffffffffffffffffffffffffffffffff1673ffffffffffffffffffffffffffffffffffffffff168152602001908152602001600020819055506000600960008673ffffffffffffffffffffffffffffffffffffffff1673ffffffffffffffffffffffffffffffffffffffff16815260200190815260200160002081905550611e88848484612491565b50505050565b505050565b611e9b6108b3565b611eda576040517f08c379a0000000000000000000000000000000000000000000000000000000008152600401611ed1906152e5565b60405180910390fd5b565b6000611efd8473ffffffffffffffffffffffffffffffffffffffff16612496565b15612056578373ffffffffffffffffffffffffffffffffffffffff1663150b7a02611f266110ea565b8786866040518563ffffffff1660e01b8152600401611f48949392919061535a565b6020604051808303816000875af1925050508015611f8457506040513d601f19601f82011682018060405250810190611f8191906153bb565b60015b612006573d8060008114611fb4576040519150601f19603f3d011682016040523d82523d6000602084013e611fb9565b606091505b506000815103611ffe576040517f08c379a0000000000000000000000000000000000000000000000000000000008152600401611ff5906139b6565b60405180910390fd5b805181602001fd5b63150b7a0260e01b7bffffffffffffffffffffffffffffffffffffffffffffffffffffffff1916817bffffffffffffffffffffffffffffffffffffffffffffffffffffffff19161491505061205b565b600190505b949350505050565b60606000600283600261207691906153e8565b6120809190613816565b67ffffffffffffffff81111561209957612098612a67565b5b6040519080825280601f01601f1916602001820160405280156120cb5781602001600182028036833780820191505090505b5090507f30000000000000000000000000000000000000000000000000000000000000008160008151811061210357612102612dae565b5b60200101907effffffffffffffffffffffffffffffffffffffffffffffffffffffffffffff1916908160001a9053507f78000000000000000000000000000000000000000000000000000000000000008160018151811061216757612166612dae565b5b60200101907effffffffffffffffffffffffffffffffffffffffffffffffffffffffffffff1916908160001a905350600060018460026121a791906153e8565b6121b19190613816565b90505b6001811115612251577f3031323334353637383961626364656600000000000000000000000000000000600f8616601081106121f3576121f2612dae565b5b1a60f81b82828151811061220a57612209612dae565b5b60200101907effffffffffffffffffffffffffffffffffffffffffffffffffffffffffffff1916908160001a905350600485901c94508061224a90615442565b90506121b4565b5060008414612295576040517f08c379a000000000000000000000000000000000000000000000000000000000815260040161228c906154b7565b60405180910390fd5b8091505092915050565b6060600082519050600081036122c75760405180602001604052806000815250915050612431565b600060036002836122d89190613816565b6122e29190613a4d565b60046122ee91906153e8565b905060006020826122ff9190613816565b67ffffffffffffffff81111561231857612317612a67565b5b6040519080825280601f01601f19166020018201604052801561234a5781602001600182028036833780820191505090505b50905060006040518060600160405280604081526020016155b0604091399050600181016020830160005b868110156123ee5760038101905062ffffff818a015116603f8160121c168401518060081b905060ff603f83600c1c1686015116810190508060081b905060ff603f8360061c1686015116810190508060081b905060ff603f831686015116810190508060e01b90508084526004840193505050612375565b506003860660018114612408576002811461241857612423565b613d3d60f01b6002830352612423565b603d60f81b60018303525b508484525050819450505050505b919050565b61244083836124b9565b61244d6000848484611edc565b61248c576040517f08c379a0000000000000000000000000000000000000000000000000000000008152600401612483906139b6565b60405180910390fd5b505050565b505050565b6000808273ffffffffffffffffffffffffffffffffffffffff163b119050919050565b600073ffffffffffffffffffffffffffffffffffffffff168273ffffffffffffffffffffffffffffffffffffffff1603612528576040517f08c379a000000000000000000000000000000000000000000000000000000000815260040161251f90615523565b60405180910390fd5b61253181611ca2565b15612571576040517f08c379a00000000000000000000000000000000000000000000000000000000081526004016125689061558f565b60405180910390fd5b61257d60008383611d0e565b6001600360008473ffffffffffffffffffffffffffffffffffffffff1673ffffffffffffffffffffffffffffffffffffffff16815260200190815260200160002060008282546125cd9190613816565b92505081905550816002600083815260200190815260200160002060006101000a81548173ffffffffffffffffffffffffffffffffffffffff021916908373ffffffffffffffffffffffffffffffffffffffff160217905550808273ffffffffffffffffffffffffffffffffffffffff16600073ffffffffffffffffffffffffffffffffffffffff167fddf252ad1be2c89b69c2b068fc378daa952ba7f163c4a11628f55a4df523b3ef60405160405180910390a461268e60008383611e8e565b5050565b6000604051905090565b600080fd5b600080fd5b600073ffffffffffffffffffffffffffffffffffffffff82169050919050565b60006126d1826126a6565b9050919050565b6126e1816126c6565b81146126ec57600080fd5b50565b6000813590506126fe816126d8565b92915050565b60006020828403121561271a5761271961269c565b5b6000612728848285016126ef565b91505092915050565b600081519050919050565b600082825260208201905092915050565b60005b8381101561276b578082015181840152602081019050612750565b8381111561277a576000848401525b50505050565b6000601f19601f8301169050919050565b600061279c82612731565b6127a6818561273c565b93506127b681856020860161274d565b6127bf81612780565b840191505092915050565b600060208201905081810360008301526127e48184612791565b905092915050565b60007fffffffff0000000000000000000000000000000000000000000000000000000082169050919050565b612821816127ec565b811461282c57600080fd5b50565b60008135905061283e81612818565b92915050565b60006020828403121561285a5761285961269c565b5b60006128688482850161282f565b91505092915050565b60008115159050919050565b61288681612871565b82525050565b60006020820190506128a1600083018461287d565b92915050565b6000819050919050565b6128ba816128a7565b81146128c557600080fd5b50565b6000813590506128d7816128b1565b92915050565b6000602082840312156128f3576128f261269c565b5b6000612901848285016128c8565b91505092915050565b612913816126c6565b82525050565b600060208201905061292e600083018461290a565b92915050565b6000806040838503121561294b5761294a61269c565b5b6000612959858286016126ef565b925050602061296a858286016128c8565b9150509250929050565b60008060006060848603121561298d5761298c61269c565b5b600061299b868287016126ef565b93505060206129ac868287016126ef565b92505060406129bd868287016128c8565b9150509250925092565b6129d0816128a7565b82525050565b60006020820190506129eb60008301846129c7565b92915050565b6129fa81612871565b8114612a0557600080fd5b50565b600081359050612a17816129f1565b92915050565b60008060408385031215612a3457612a3361269c565b5b6000612a42858286016126ef565b9250506020612a5385828601612a08565b9150509250929050565b600080fd5b600080fd5b7f4e487b7100000000000000000000000000000000000000000000000000000000600052604160045260246000fd5b612a9f82612780565b810181811067ffffffffffffffff82111715612abe57612abd612a67565b5b80604052505050565b6000612ad1612692565b9050612add8282612a96565b919050565b600067ffffffffffffffff821115612afd57612afc612a67565b5b612b0682612780565b9050602081019050919050565b82818337600083830152505050565b6000612b35612b3084612ae2565b612ac7565b905082815260208101848484011115612b5157612b50612a62565b5b612b5c848285612b13565b509392505050565b600082601f830112612b7957612b78612a5d565b5b8135612b89848260208601612b22565b91505092915050565b60008060008060808587031215612bac57612bab61269c565b5b6000612bba878288016126ef565b9450506020612bcb878288016126ef565b9350506040612bdc878288016128c8565b925050606085013567ffffffffffffffff811115612bfd57612bfc6126a1565b5b612c0987828801612b64565b91505092959194509250565b600067ffffffffffffffff821115612c3057612c2f612a67565b5b612c3982612780565b9050602081019050919050565b6000612c59612c5484612c15565b612ac7565b905082815260208101848484011115612c7557612c74612a62565b5b612c80848285612b13565b509392505050565b600082601f830112612c9d57612c9c612a5d565b5b8135612cad848260208601612c46565b91505092915050565b60008060408385031215612ccd57612ccc61269c565b5b6000612cdb858286016128c8565b925050602083013567ffffffffffffffff811115612cfc57612cfb6126a1565b5b612d0885828601612c88565b9150509250929050565b60008060408385031215612d2957612d2861269c565b5b6000612d37858286016126ef565b925050602083013567ffffffffffffffff811115612d5857612d576126a1565b5b612d6485828601612c88565b9150509250929050565b60008060408385031215612d8557612d8461269c565b5b6000612d93858286016126ef565b9250506020612da4858286016126ef565b9150509250929050565b7f4e487b7100000000000000000000000000000000000000000000000000000000600052603260045260246000fd5b7f4d696e7465723a204164647265737320646f6573206e6f74206861766520612060008201527f746f6b656e000000000000000000000000000000000000000000000000000000602082015250565b6000612e3960258361273c565b9150612e4482612ddd565b604082019050919050565b60006020820190508181036000830152612e6881612e2c565b9050919050565b7f4e487b7100000000000000000000000000000000000000000000000000000000600052602260045260246000fd5b60006002820490506001821680612eb657607f821691505b602082108103612ec957612ec8612e6f565b5b50919050565b7f4552433732313a20617070726f76616c20746f2063757272656e74206f776e6560008201527f7200000000000000000000000000000000000000000000000000000000000000602082015250565b6000612f2b60218361273c565b9150612f3682612ecf565b604082019050919050565b60006020820190508181036000830152612f5a81612f1e565b9050919050565b7f4552433732313a20617070726f76652063616c6c6572206973206e6f7420746f60008201527f6b656e206f776e6572206e6f7220617070726f76656420666f7220616c6c0000602082015250565b6000612fbd603e8361273c565b9150612fc882612f61565b604082019050919050565b60006020820190508181036000830152612fec81612fb0565b9050919050565b7f4552433732313a2063616c6c6572206973206e6f7420746f6b656e206f776e6560008201527f72206e6f7220617070726f766564000000000000000000000000000000000000602082015250565b600061304f602e8361273c565b915061305a82612ff3565b604082019050919050565b6000602082019050818103600083015261307e81613042565b9050919050565b7f4552433732313a20696e76616c696420746f6b656e2049440000000000000000600082015250565b60006130bb60188361273c565b91506130c682613085565b602082019050919050565b600060208201905081810360008301526130ea816130ae565b9050919050565b7f4552433732313a2061646472657373207a65726f206973206e6f74206120766160008201527f6c6964206f776e65720000000000000000000000000000000000000000000000602082015250565b600061314d60298361273c565b9150613158826130f1565b604082019050919050565b6000602082019050818103600083015261317c81613140565b9050919050565b7f4f6e6c7920746865206f776e6572206f662074686520746f6b656e2063616e2060008201527f7472616e73666572206974000000000000000000000000000000000000000000602082015250565b60006131df602b8361273c565b91506131ea82613183565b604082019050919050565b6000602082019050818103600083015261320e816131d2565b9050919050565b7f496e76616c6964204e4654204944000000000000000000000000000000000000600082015250565b600061324b600e8361273c565b915061325682613215565b602082019050919050565b6000602082019050818103600083015261327a8161323e565b9050919050565b60008190508160005260206000209050919050565b60006020601f8301049050919050565b600082821b905092915050565b6000600883026132e37fffffffffffffffffffffffffffffffffffffffffffffffffffffffffffffffff826132a6565b6132ed86836132a6565b95508019841693508086168417925050509392505050565b6000819050919050565b600061332a613325613320846128a7565b613305565b6128a7565b9050919050565b6000819050919050565b6133448361330f565b61335861335082613331565b8484546132b3565b825550505050565b600090565b61336d613360565b61337881848461333b565b505050565b5b8181101561339c57613391600082613365565b60018101905061337e565b5050565b601f8211156133e1576133b281613281565b6133bb84613296565b810160208510156133ca578190505b6133de6133d685613296565b83018261337d565b50505b505050565b600082821c905092915050565b6000613404600019846008026133e6565b1980831691505092915050565b600061341d83836133f3565b9150826002028217905092915050565b61343682612731565b67ffffffffffffffff81111561344f5761344e612a67565b5b6134598254612e9e565b6134648282856133a0565b600060209050601f8311600181146134975760008415613485578287015190505b61348f8582613411565b8655506134f7565b601f1984166134a586613281565b60005b828110156134cd578489015182556001820191506020850194506020810190506134a8565b868310156134ea57848901516134e6601f8916826133f3565b8355505b6001600288020188555050505b505050505050565b7f496e76616c696420746f6b656e00000000000000000000000000000000000000600082015250565b6000613535600d8361273c565b9150613540826134ff565b602082019050919050565b6000602082019050818103600083015261356481613528565b9050919050565b7f4f6e6c79206f6e6520746f6b656e20706572206164647265737320697320616c60008201527f6c6f776564000000000000000000000000000000000000000000000000000000602082015250565b60006135c760258361273c565b91506135d28261356b565b604082019050919050565b600060208201905081810360008301526135f6816135ba565b9050919050565b7f4f776e61626c653a206e6577206f776e657220697320746865207a65726f206160008201527f6464726573730000000000000000000000000000000000000000000000000000602082015250565b600061365960268361273c565b9150613664826135fd565b604082019050919050565b600060208201905081810360008301526136888161364c565b9050919050565b7f4552433732313a207472616e736665722066726f6d20696e636f72726563742060008201527f6f776e6572000000000000000000000000000000000000000000000000000000602082015250565b60006136eb60258361273c565b91506136f68261368f565b604082019050919050565b6000602082019050818103600083015261371a816136de565b9050919050565b7f4552433732313a207472616e7366657220746f20746865207a65726f2061646460008201527f7265737300000000000000000000000000000000000000000000000000000000602082015250565b600061377d60248361273c565b915061378882613721565b604082019050919050565b600060208201905081810360008301526137ac81613770565b9050919050565b7f4e487b7100000000000000000000000000000000000000000000000000000000600052601160045260246000fd5b60006137ed826128a7565b91506137f8836128a7565b92508282101561380b5761380a6137b3565b5b828203905092915050565b6000613821826128a7565b915061382c836128a7565b9250827fffffffffffffffffffffffffffffffffffffffffffffffffffffffffffffffff03821115613861576138606137b3565b5b828201905092915050565b7f4f776e61626c653a2063616c6c6572206973206e6f7420746865206f776e6572600082015250565b60006138a260208361273c565b91506138ad8261386c565b602082019050919050565b600060208201905081810360008301526138d181613895565b9050919050565b7f4552433732313a20617070726f766520746f2063616c6c657200000000000000600082015250565b600061390e60198361273c565b9150613919826138d8565b602082019050919050565b6000602082019050818103600083015261393d81613901565b9050919050565b7f4552433732313a207472616e7366657220746f206e6f6e20455243373231526560008201527f63656976657220696d706c656d656e7465720000000000000000000000000000602082015250565b60006139a060328361273c565b91506139ab82613944565b604082019050919050565b600060208201905081810360008301526139cf81613993565b9050919050565b60006139e1826128a7565b91507fffffffffffffffffffffffffffffffffffffffffffffffffffffffffffffffff8203613a1357613a126137b3565b5b600182019050919050565b7f4e487b7100000000000000000000000000000000000000000000000000000000600052601260045260246000fd5b6000613a58826128a7565b9150613a63836128a7565b925082613a7357613a72613a1e565b5b828204905092915050565b6000613a89826128a7565b9150613a94836128a7565b925082613aa457613aa3613a1e565b5b828206905092915050565b600081905092915050565b7f3c73766720786d6c6e733d22687474703a2f2f7777772e77332e6f72672f323060008201527f30302f7376672220786d6c6e733a786c696e6b3d22687474703a2f2f7777772e60208201527f77332e6f72672f313939392f786c696e6b222077696474683d2232393022206860408201527f65696768743d22353030222076696577426f783d22302030203239302035303060608201527f222066696c6c3d2275726c2823677261643129223e3c646566733e3c6c696e6560808201527f61724772616469656e742069643d226772616431222078313d2230252220793160a08201527f3d223025222078323d223025222079323d2231303025223e3c73746f70206f6660c08201527f667365743d22302522207374796c653d2273746f702d636f6c6f723a7267622860e08201527f302c3130302c30293b73746f702d6f7061636974793a3122202f3e3c73746f706101008201527f206f66667365743d223130302522207374796c653d2273746f702d636f6c6f726101208201527f3a72676228302c302c313030293b73746f702d6f7061636974793a3122202f3e6101408201527f3c2f6c696e6561724772616469656e743e3c66696c7465722069643d226631226101608201527f3e3c2f66696c7465723e3c636c6970506174682069643d22636f726e657273226101808201527f3e3c726563742077696474683d2232393022206865696768743d2235303022206101a08201527f72783d223432222072793d223432222f3e3c2f636c6970506174683e3c7061746101c08201527f682069643d22746578742d706174682d612220643d224d3430203132204832356101e08201527f30204132382032382030203020312032373820343020563436302041323820326102008201527f38203020302031203235302034383820483430204132382032382030203020316102208201527f203132203436302056343020413238203238203020302031203430203132207a6102408201527f222f3e3c706174682069643d226d696e696d61702220643d224d3233342034346102608201527f3443323334203435372e393439203234322e32312034363320323533203436336102808201527f222f3e3c66696c7465722069643d22746f702d726567696f6e2d626c7572223e6102a08201527f3c6665476175737369616e426c757220696e3d22536f757263654772617068696102c08201527f632220737464446576696174696f6e3d223234222f3e3c2f66696c7465723e3c6102e08201527f6c696e6561724772616469656e742069643d22677261642d7570222078313d226103008201527f31222078323d2230222079313d2231222079323d2230223e3c73746f70206f666103208201527f667365743d22302e30222073746f702d636f6c6f723d227768697465222073746103408201527f6f702d6f7061636974793d2231222f3e3c73746f70206f66667365743d222e396103608201527f222073746f702d636f6c6f723d227768697465222073746f702d6f70616369746103808201527f793d2230222f3e3c2f6c696e6561724772616469656e743e3c6c696e656172476103a08201527f72616469656e742069643d22677261642d646f776e222078313d2230222078326103c08201527f3d2231222079313d2230222079323d2231223e3c73746f70206f66667365743d6103e08201527f22302e30222073746f702d636f6c6f723d227768697465222073746f702d6f706104008201527f61636974793d2231222f3e3c73746f70206f66667365743d22302e39222073746104208201527f6f702d636f6c6f723d227768697465222073746f702d6f7061636974793d22306104408201527f222f3e3c2f6c696e6561724772616469656e743e3c6d61736b2069643d2266616104608201527f64652d757022206d61736b436f6e74656e74556e6974733d226f626a656374426104808201527f6f756e64696e67426f78223e3c726563742077696474683d22312220686569676104a08201527f68743d2231222066696c6c3d2275726c2823677261642d757029222f3e3c2f6d6104c08201527f61736b3e3c6d61736b2069643d22666164652d646f776e22206d61736b436f6e6104e08201527f74656e74556e6974733d226f626a656374426f756e64696e67426f78223e3c726105008201527f6563742077696474683d223122206865696768743d2231222066696c6c3d22756105208201527f726c2823677261642d646f776e29222f3e3c2f6d61736b3e3c6d61736b2069646105408201527f3d226e6f6e6522206d61736b436f6e74656e74556e6974733d226f626a6563746105608201527f426f756e64696e67426f78223e3c726563742077696474683d223122206865696105808201527f6768743d2231222066696c6c3d227768697465222f3e3c2f6d61736b3e3c6c696105a08201527f6e6561724772616469656e742069643d22677261642d73796d626f6c223e3c736105c08201527f746f70206f66667365743d22302e37222073746f702d636f6c6f723d227768696105e08201527f7465222073746f702d6f7061636974793d2231222f3e3c73746f70206f6666736106008201527f65743d222e3935222073746f702d636f6c6f723d227768697465222073746f706106208201527f2d6f7061636974793d2230222f3e3c2f6c696e6561724772616469656e743e3c6106408201527f6d61736b2069643d22666164652d73796d626f6c22206d61736b436f6e74656e6106608201527f74556e6974733d227573657253706163654f6e557365223e3c726563742077696106808201527f6474683d22323930707822206865696768743d223230307078222066696c6c3d6106a08201527f2275726c2823677261642d73796d626f6c29222f3e3c2f6d61736b3e3c2f64656106c08201527f66733e3c6720636c69702d706174683d2275726c2823636f726e65727329223e6106e08201527f3c726563742066696c6c3d226330326161612220783d223070782220793d22306107008201527f7078222077696474683d22323930707822206865696768743d223530307078226107208201527f2f3e3c72656374207374796c653d2266696c7465723a2075726c2823663129226107408201527f20783d223070782220793d22307078222077696474683d2232393070782220686107608201527f65696768743d223530307078222f3e3c67207374796c653d2266696c7465723a6107808201527f75726c2823746f702d726567696f6e2d626c7572293b207472616e73666f726d6107a08201527f3a7363616c6528312e35293b207472616e73666f726d2d6f726967696e3a63656107c08201527f6e74657220746f703b223e3c726563742066696c6c3d226e6f6e652220783d226107e08201527f3070782220793d22307078222077696474683d223239307078222068656967686108008201527f743d223530307078222f3e3c2f673e3c7265637420783d22302220793d2230226108208201527f2077696474683d2232393022206865696768743d22353030222072783d2234326108408201527f222072793d223432222066696c6c3d227267626128302c302c302c30292220736108608201527f74726f6b653d2272676261283235352c3235352c3235352c302e3229222f3e3c6108808201527f2f673e3c7465787420746578742d72656e646572696e673d226f7074696d697a6108a08201527f655370656564223e3c74657874506174682073746172744f66667365743d222d6108c08201527f31303025222066696c6c3d2277686974652220666f6e742d66616d696c793d226108e08201527f6d6f6e6f73706163652220666f6e742d73697a653d22313070782220786c696e6109008201527f6b3a687265663d2223746578742d706174682d61223e0000000000000000000061092082015250565b600061460961093683613aaf565b915061461482613aba565b61093682019050919050565b600061462b82612731565b6146358185613aaf565b935061464581856020860161274d565b80840191505092915050565b7f3c616e696d6174652061646469746976653d2273756d2220617474726962757460008201527f654e616d653d2273746172744f6666736574222066726f6d3d2230252220746f60208201527f3d22313030252220626567696e3d22307322206475723d22333073222072657060408201527f656174436f756e743d22696e646566696e697465222f3e203c2f74657874506160608201527f74683e3c74657874506174682073746172744f66667365743d2230252220666960808201527f6c6c3d2277686974652220666f6e742d66616d696c793d226d6f6e6f7370616360a08201527f652220666f6e742d73697a653d22313070782220786c696e6b3a687265663d2260c08201527f23746578742d706174682d61223e00000000000000000000000000000000000060e082015250565b600061479160ee83613aaf565b915061479c82614651565b60ee82019050919050565b7f3c616e696d6174652061646469746976653d2273756d2220617474726962757460008201527f654e616d653d2273746172744f6666736574222066726f6d3d2230252220746f60208201527f3d22313030252220626567696e3d22307322206475723d22333073222072657060408201527f656174436f756e743d22696e646566696e697465222f3e3c2f7465787450617460608201527f683e3c74657874506174682073746172744f66667365743d223530252220666960808201527f6c6c3d2277686974652220666f6e742d66616d696c793d226d6f6e6f7370616360a08201527f652220666f6e742d73697a653d22313070782220786c696e6b3a687265663d2260c08201527f23746578742d706174682d61223e00000000000000000000000000000000000060e082015250565b60006148e760ee83613aaf565b91506148f2826147a7565b60ee82019050919050565b7f3c616e696d6174652061646469746976653d2273756d2220617474726962757460008201527f654e616d653d2273746172744f6666736574222066726f6d3d2230252220746f60208201527f3d22313030252220626567696e3d22307322206475723d22333073222072657060408201527f656174436f756e743d22696e646566696e697465222f3e3c2f7465787450617460608201527f683e3c74657874506174682073746172744f66667365743d222d35302522206660808201527f696c6c3d2277686974652220666f6e742d66616d696c793d226d6f6e6f73706160a08201527f63652220666f6e742d73697a653d22313070782220786c696e6b3a687265663d60c08201527f2223746578742d706174682d61223e000000000000000000000000000000000060e082015250565b6000614a3d60ef83613aaf565b9150614a48826148fd565b60ef82019050919050565b7f3c616e696d6174652061646469746976653d2273756d2220617474726962757460008201527f654e616d653d2273746172744f6666736574222066726f6d3d2230252220746f60208201527f3d22313030252220626567696e3d22307322206475723d22333073222072657060408201527f656174436f756e743d22696e646566696e697465222f3e3c2f7465787450617460608201527f683e3c2f746578743e3c67206d61736b3d2275726c2823666164652d73796d6260808201527f6f6c29223e3c726563742066696c6c3d226e6f6e652220783d2230707822207960a08201527f3d22307078222077696474683d22323930707822206865696768743d2232303060c08201527f7078222f3e3c7465787420793d22373070782220783d2233327078222066696c60e08201527f6c3d2277686974652220666f6e742d66616d696c793d226d6f6e6f73706163656101008201527f2220666f6e742d7765696768743d223230302220666f6e742d73697a653d22336101208201527f367078223e00000000000000000000000000000000000000000000000000000061014082015250565b6000614c0961014583613aaf565b9150614c1482614a53565b61014582019050919050565b7f3c2f746578743e3c7465787420793d2231313570782220783d2233327078222060008201527f66696c6c3d2277686974652220666f6e742d66616d696c793d226d6f6e6f737060208201527f6163652220666f6e742d7765696768743d223230302220666f6e742d73697a6560408201527f3d2231387078223e536f6d657468696e673c2f746578743e3c2f673e3c72656360608201527f7420783d2231362220793d223136222077696474683d2232353822206865696760808201527f68743d22343638222072783d223236222072793d223236222066696c6c3d227260a08201527f67626128302c302c302c302922207374726f6b653d2272676261283235352c3260c08201527f35352c3235352c302e3229222f3e3c67206d61736b3d2275726c28236e6f6e6560e08201527f2922207374796c653d227472616e73666f726d3a7472616e736c6174652837326101008201527f70782c313839707829223e3c2f673e3c67207374796c653d227472616e73666f6101208201527f726d3a7472616e736c61746528323970782c20333834707829223e3c726563746101408201527f2077696474683d223938707822206865696768743d2232367078222072783d226101608201527f387078222072793d22387078222066696c6c3d227267626128302c302c302c306101808201527f2e3629222f3e3c7465787420783d22313270782220793d22313770782220666f6101a08201527f6e742d66616d696c793d226d6f6e6f73706163652220666f6e742d73697a653d6101c08201527f2231327078222066696c6c3d227768697465223e3c747370616e2066696c6c3d6101e08201527f2272676261283235352c3235352c3235352c302e3629223e49443a203c2f74736102008201527f70616e3e0000000000000000000000000000000000000000000000000000000061022082015250565b6000614ee761022483613aaf565b9150614ef282614c20565b61022482019050919050565b7f3c2f746578743e3c2f673e3c2f7376673e000000000000000000000000000000600082015250565b6000614f34601183613aaf565b9150614f3f82614efe565b601182019050919050565b6000614f55826145fb565b9150614f618289614620565b9150614f6c82614784565b9150614f788288614620565b9150614f83826148da565b9150614f8f8287614620565b9150614f9a82614a30565b9150614fa68286614620565b9150614fb182614bfb565b9150614fbd8285614620565b9150614fc882614ed9565b9150614fd48284614620565b9150614fdf82614f27565b9150819050979650505050505050565b7f646174613a696d6167652f7376672b786d6c3b6261736536342c000000000000600082015250565b6000615025601a83613aaf565b915061503082614fef565b601a82019050919050565b600061504682615018565b91506150528284614620565b915081905092915050565b7f7b226e616d65223a220000000000000000000000000000000000000000000000600082015250565b6000615093600983613aaf565b915061509e8261505d565b600982019050919050565b600081546150b681612e9e565b6150c08186613aaf565b945060018216600081146150db57600181146150f057615123565b60ff1983168652811515820286019350615123565b6150f985613281565b60005b8381101561511b578154818901526001820191506020810190506150fc565b838801955050505b50505092915050565b7f222c22696d616765223a22000000000000000000000000000000000000000000600082015250565b6000615162600b83613aaf565b915061516d8261512c565b600b82019050919050565b7f227d000000000000000000000000000000000000000000000000000000000000600082015250565b60006151ae600283613aaf565b91506151b982615178565b600282019050919050565b60006151cf82615086565b91506151db82856150a9565b91506151e682615155565b91506151f28284614620565b91506151fd826151a1565b91508190509392505050565b60006152158285614620565b91506152218284614620565b91508190509392505050565b7f5061757361626c653a2070617573656400000000000000000000000000000000600082015250565b600061526360108361273c565b915061526e8261522d565b602082019050919050565b6000602082019050818103600083015261529281615256565b9050919050565b7f5061757361626c653a206e6f7420706175736564000000000000000000000000600082015250565b60006152cf60148361273c565b91506152da82615299565b602082019050919050565b600060208201905081810360008301526152fe816152c2565b9050919050565b600081519050919050565b600082825260208201905092915050565b600061532c82615305565b6153368185615310565b935061534681856020860161274d565b61534f81612780565b840191505092915050565b600060808201905061536f600083018761290a565b61537c602083018661290a565b61538960408301856129c7565b818103606083015261539b8184615321565b905095945050505050565b6000815190506153b581612818565b92915050565b6000602082840312156153d1576153d061269c565b5b60006153df848285016153a6565b91505092915050565b60006153f3826128a7565b91506153fe836128a7565b9250817fffffffffffffffffffffffffffffffffffffffffffffffffffffffffffffffff0483118215151615615437576154366137b3565b5b828202905092915050565b600061544d826128a7565b9150600082036154605761545f6137b3565b5b600182039050919050565b7f537472696e67733a20686578206c656e67746820696e73756666696369656e74600082015250565b60006154a160208361273c565b91506154ac8261546b565b602082019050919050565b600060208201905081810360008301526154d081615494565b9050919050565b7f4552433732313a206d696e7420746f20746865207a65726f2061646472657373600082015250565b600061550d60208361273c565b9150615518826154d7565b602082019050919050565b6000602082019050818103600083015261553c81615500565b9050919050565b7f4552433732313a20746f6b656e20616c7265616479206d696e74656400000000600082015250565b6000615579601c8361273c565b915061558482615543565b602082019050919050565b600060208201905081810360008301526155a88161556c565b905091905056fe4142434445464748494a4b4c4d4e4f505152535455565758595a6162636465666768696a6b6c6d6e6f707172737475767778797a303132333435363738392b2fa26469706673582212201c38a333d53ad00a2ef7f218923cbef1fae182df9f750b473405b55655598b0b64736f6c634300080f0033",
  "linkReferences": {},
  "deployedLinkReferences": {}
}